:020000040800F2
:10000000884A0120B93A0008F9030008FB030008F8
:10001000FF030008030400080704000800000000B4
:10002000000000000000000000000000C102000805
:100030000B040008000000001D030008053900083B
:10004000D33A0008D33A0008D33A0008D33A00085C
:10005000D33A0008D33A0008D33A0008D33A00084C
:10006000D33A0008D33A0008D33A0008D33A00083C
:10007000D33A0008D33A0008D33A0008D33A00082C
:10008000D33A0008D33A0008D33A00085B050008C9
:10009000DD040008D33A0008D33A000893F50008BD
:1000A000D33A0008D33A0008D33A0008D33A0008FC
:1000B000932F0008D7270008C10B0008D33A000887
:1000C000D33A0008D33A0008D33A0008D33A0008DC
:1000D000D33A00080D040008993A00087105000899
:1000E000D33A0008D33A0008D33A0008D33A0008BC
:1000F000D33A0008D33A0008D33A0008D33A0008AC
:10010000D33A0008D33A0008D33A0008D33A00089B
:10011000D33A0008D33A0008D33A0008D33A00088B
:10012000D33A00082F2B0008D33A0008D33A00082E
:10013000D33A0008D33A0008D33A0008450500082E
:1001400011050008D33A0008D33A0008D33A000852
:10015000B3F500087D2B0008D33A0008232B0008D4
:10016000D33A0008D33A0008D33A0008D33A00083B
:10017000D33A0008D33A0008D33A0008D33A00082B
:10018000D33A0008D33A0008D33A0008D33A00081B
:10019000D33A0008D33A0008D33A0008D33A00080B
:1001A0000000000000000000D33A000800F002F850
:1001B00000F076F80AA090E8000C82448344AAF18B
:1001C0000107DA4501D100F06BF8AFF2090EBAE889
:1001D0000F0013F0010F18BFFB1A43F0010318477B
:1001E000BC620100DC6201000A444FF0000C10F810
:1001F000013B13F0070408BF10F8014B1D1108BFA5
:1002000010F8015B641E05D010F8016B641E01F844
:10021000016BF9D113F0080F1EBF10F8014BAD1C94
:100220000C1B09D16D1E58BF01F801CBFAD505E0B2
:1002300014F8016B01F8016B6D1EF9D59142D6D30C
:10024000704700000023002400250026103A28BF34
:1002500078C1FBD8520728BF30C148BF0B60704738
:10026000662915F01B82642911F0FA85752911F0B1
:10027000F785632912F03382002070471FB515F00F
:1002800054F99DE8030011F031FF12F06DFA0400FB
:100290000020002114F0F2F9E0601FBD10B510BD80
:1002A00012F0A5FB1146FFF7E9FF00F09AF812F0F3
:1002B000C3FB03B4FFF7F2FF03BC03F099FB00009C
:1002C0002C4B19680868B0E8F04F80F30988BFF339
:1002D0006F8F4FF0000080F311887047000000001E
:1002E00008480068006880F308884FF0000080F339
:1002F000148862B661B6BFF34F8FBFF36F8F00DF14
:1003000000BF00BF08ED00E0DFF80C00016841F419
:1003100070010160704700BF88ED00E0EFF30980D5
:10032000BFF36F8F134B1A681EF0100F08BF20ED3C
:10033000108A20E9F04F106009B44FF0500080F3AC
:100340001188BFF34F8FBFF36F8F09F023F84FF081
:10035000000080F3118809BC19680868B0E8F04F04
:100360001EF0100F08BFB0EC108A80F30988BFF3AD
:100370006F8F70479C000020EFF3058070470000EE
:1003800010B54FF4407003F0B7FBB42003F0C2FA8D
:1003900000F058FB002147F2305001F037FC01F02B
:1003A0000BF901F0C5FA02F086FA02F0DFFA02F06A
:1003B0001CFB01F001F901F0B0FB02F032FA00245D
:1003C00008E0204602F04EFA40F2C52003F0BFFAE2
:1003D000601CC4B2042CF4DB03F04EF80EF01CFDDC
:1003E00010BD02F0ABFCFFF7CBFF0DF092FD09F062
:1003F00093F900BFFEE70000704700BFFEE700BFB3
:10040000FEE700BFFEE700BFFEE7704710B540F211
:100410002551924804F084FA18B1904804F0BEF9CE
:100420005BE040F224418D4804F07AFA002854D071
:100430008A4804F0B3F98A4805F0D3F830BB0021AC
:10044000874805F08BF8864805F0ABF8C0F12E0020
:1004500084490880824805F0A4F8834908602E2169
:100460007F4805F09CF87E48006840F400207C49F5
:1004700008607E497A4805F0EAF80121784805F0DD
:100480006DF87B497B4803F064F926E0002174484D
:1004900005F064F8724805F084F8C0F12E00714947
:1004A00008806F4805F07DF8734908602E216C487C
:1004B00005F075F86A48006820F400206849086073
:1004C0006A49674805F0C3F80121654805F046F818
:1004D000674968482E3003F03CF910BD00B585B07F
:1004E0000221664804F070FE80B10221634804F0E6
:1004F00006FF6349614804F044FE6A4600215F48F4
:1005000004F0DFFC69465D4801F0C5F805B000BDA8
:1005100000B585B002215B4804F056FE80B102218F
:10052000584804F0ECFE5649564804F02AFE6A4644
:100530000021544804F0C5FC6946524801F0ABF86C
:1005400005B000BD10B501214E4804F03DFE18B1C4
:1005500001214C4804F0D3FE10BD10B501214748DD
:1005600004F032FE18B10121444804F0C8FE10BD69
:1005700010B540F22551444804F0D2F918B1424870
:1005800004F00CF967E040F224413F4804F0C8F958
:10059000002860D03C4804F001F93C4805F021F8FF
:1005A00060BB0021394804F0D9FF384804F0F9FF56
:1005B000C0F16400364908806421344804F0EFFF3C
:1005C00032482838806A40F400203049283988624F
:1005D00030492E4805F03BF801212C4804F0BEFFBD
:1005E0002B480088082803D12B480FF0A4F932E0EB
:1005F0002A480088401C294908802CE00021234813
:1006000004F0ACFF214804F0CCFFC0F164002049A5
:10061000088064211D4804F0C2FF1C482838806A05
:1006200040F400201949283988621A49174805F012
:100630000EF80121154804F091FF1548008808289C
:1006400004D1154864300FF076F904E013480088AF
:10065000401C1249088000BF10BD0000001001407E
:10066000406402400A00002000000020000030101A
:1006700004070020A80600200400002000640040B9
:100680000800003200680040004800402860024036
:100690000C000020000C0010244101200800002064
:1006A0000CB50020019000908348006840F4803031
:1006B0008149086000BF8048006800F40030009065
:1006C0000198401C0190009818B90198B0F5A04F0E
:1006D000F1D17948006800F4003010B10120009099
:1006E00001E0002000900098012860D1724840305D
:1006F000006840F080507049403108606F480068E1
:1007000040F440406D4908606B48083000686A4911
:10071000083108600846006840F400400860084658
:10072000006840F4A05008606548091F0860081F71
:10073000006840F08070091F086000BF5E480068D4
:1007400000F000700028F9D05C48006840F4803068
:100750005A49086000BF5948406800F480300028BA
:10076000F9D05648006840F400305449086000BF92
:100770005248406800F400300028F9D040F205707B
:10078000504908604C480830006820F003004A498E
:10079000083108600846006840F00200086000BFA9
:1007A00045480830006800F00C000828F8D10CBD5E
:1007B00010B54548006840F47000434908603E4861
:1007C000006840F001003C49086000203A490831C7
:1007D0000860394800683D490840374908603C488E
:1007E000091D0860081F006820F48020091F0860A8
:1007F000002031490C310860FFF752FF4FF00060D4
:1008000031498039086010BD70B5002000220223F4
:1008100000240221284D08352D6805F00C0020B178
:10082000042806D0082834D107E02A4D2A4E356026
:1008300033E02A4D284E35602FE01F4D2D1D2D68C9
:10084000C5F380541C4D2D1D2D6805F03F0154B19A
:10085000224DB5FBF1F5184E361D3668C6F38816E5
:1008600005FB06F209E01B4DB5FBF1F5124E361DF6
:100870003668C6F3881605FB06F20F4D2D1D2D6850
:10088000C5F301456D1C6B00B2FBF3F5124E3560EC
:1008900003E0104D104E356000BF00BF064D083517
:1008A0002D68C5F303150E4E705D0B4D2D68C540C8
:1008B000094E356070BD00000038024000700040F5
:1008C0000C5A4007003C024088ED00E0FFFFF6FEB6
:1008D000103000240024F40010000020001BB7009A
:1008E000140000201CB50121702003F09CFC4FF483
:1008F0000060009001208DF8040000208DF80600B3
:1009000003208DF8050001208DF807006946E648B0
:1009100003F0E8F94FF4804000906946E34803F0A3
:10092000E1F91E2000906946E14803F0DBF94FF43D
:10093000F07000906946DE4803F0D4F94FF480412E
:10094000DA4803F04DFA4FF48041D84803F046FAF4
:100950004FF40061D44803F041FA1E21D44803F05B
:100960003DFA4FF4F071D24803F038FA1CBD00B5DF
:1009700085B00121022003F056FC0121880303F019
:10098000AAFC0420039000208DF8100003208DF8AD
:10099000110001208DF8130003A9C64803F0A2F945
:1009A0000221012003F0A3FD0420009000208DF817
:1009B00004000C208DF8050001208DF80600684623
:1009C00006F0E8FA08208DF8080006208DF80900E6
:1009D00000208DF80A0001208DF80B0002A803F01A
:1009E00090F805B000BD1CB50121402003F01BFCB0
:1009F0004FF40050009001208DF8040000208DF885
:100A0000060003208DF8050001208DF807006946D7
:100A1000A74803F067F91CBD1CB50121080203F0CB
:100A200002FC0120009000208DF8040001208DF8C8
:100A3000070003208DF8050069469F4803F052F92E
:100A40001CBD704710B5FFF74DFFFFF790FFFFF794
:100A5000CAFFFFF7E1FF10BD10B540F6B830974967
:100A6000086040F6E660954908390860962008F06D
:100A700058FB40F64950914908390860962008F023
:100A800050FB40F6D6308D4908390860962008F0B2
:100A900048FB00208949086010BD10B540F6B83009
:100AA0008649086040F6D6308449083908609620A7
:100AB00008F037FB40F64950804908390860962015
:100AC00008F02FFB40F6E6607C4908390860962064
:100AD00008F027FB00207949086010BD10B540F6EA
:100AE000B8307649086040F6E66074490839086015
:100AF000962008F016FB40F6495070490839086006
:100B0000962008F00EFB40F6D6306C490839086094
:100B1000962008F006FB00206849086010BD10B55B
:100B200040F6B8306549086040F6E6606349083928
:100B30000860962008F0F5FA40F6E6605F4908394B
:100B40000860962008F0EDFA40F649505B490839F4
:100B50000860962008F0E5FA00205849086010BDAA
:100B60001FB50121042003F0A5FB3120029059207C
:100B7000ADF804000020ADF80C00ADF8060001212E
:100B80004F4804F0FBFE01A94D4804F08CFE012102
:100B90004B4804F011FF01221146494805F024FB9F
:100BA0001E208DF8000004208DF8010000208DF833
:100BB000020001208DF80300684602F0A2FF1FBD6D
:100BC00010B501213E4805F026FB012809D13D481A
:100BD0000068401C3B4908603B480068401C3A499B
:100BE00008600121364805F027FB10BD10B5002034
:100BF00034490860FFF7B4FF10BD10B54FF48041D1
:100C00002A4803F0EBF810BD10B54FF48041274897
:100C100003F0E6F810BD10B54FF48041234803F00F
:100C2000E8F810BD10B54FF400611F4803F0D6F886
:100C300010BD10B54FF400611B4803F0D1F810BD92
:100C400010B54FF40061184803F0D3F810BD10B58B
:100C500004464FF4807040FA04F1154803F0C0F8E0
:100C600010BD10B504464FF4807040FA04F11048EE
:100C700003F0B4F810BD10B504464FF4807040FA8C
:100C800004F10B4803F0B5F810BD10B54FF4005156
:100C9000074803F0A3F810BD10B54FF40051044805
:100CA00003F09EF810BD0000001002400014024046
:100CB00000180240000402400020024034180040A6
:100CC00000080040240000200801002000B597B073
:100CD0000121022003F0A7FA0121102003F0FBFA02
:100CE0000121880503F09FFA0121102003F048FB41
:100CF0000021102003F044FB8020159002208DF885
:100D0000580000208DF85A0003208DF8590000206B
:100D10008DF85B0015A9B94802F0E4FF07221146DF
:100D2000B64803F06AF80121102003F029FB0021E6
:100D3000102003F025FB4020159002208DF858006C
:100D400000208DF85A0003208DF8590000208DF8FE
:100D50005B0015A9A94802F0C5FF07220621A74894
:100D600003F04BF8A64803F0FBFBA64811900020C7
:100D7000ADF84800ADF84A004FF48060ADF84C0083
:100D80000420ADF84E000020ADF8500011A99C4899
:100D900003F04DFC10219A4803F0B9FD012240F206
:100DA0002441974803F081FD01224021944803F03B
:100DB00073FD0121924803F0C2FC25208DF840000C
:100DC00006208DF8410000208DF8420001208DF8AA
:100DD000430010A802F095FE00218B4804F0BEFBF2
:100DE00000BF8948006800F001000028F9D186485A
:100DF00004F0D8FA4FF0006001908148001D029085
:100E00008248039000200490242005900020069042
:100E10004FF4806007900020089009904FF4807094
:100E20000A904FF440300B9000200C900D900E90E3
:100E30000F9001A9744804F057FB00227349243134
:100E4000714804F0B2FB01216F4804F0BAFB0021A5
:100E50006D4804F083FB01216B4804F07FFB17B061
:100E600000BD704770470146002901DD0846704704
:100E7000484200B2FBE700B101B9704702784378FD
:100E800042EA0322C2F30A020A804278D21083782F
:100E900042EA4312C2F30A024A8082789211C3786E
:100EA00042EA8302037942EA8322C2F30A028A8079
:100EB00002795210437942EAC312C2F30A02CA808D
:100EC0004279C2F301128A72427912119308CB72ED
:100ED0008279C37942EA032212B28A81027A437A82
:100EE00042EA032213B201F10C02CB81827AC37A67
:100EF00042EA032213B201F10C020B82037B8B74D2
:100F0000437BCB74827BC37B42EA03228A82027CCE
:100F1000437C42EA032212B20A810A88A2F5806267
:100F200012B20A804A88A2F5806212B24A808A8888
:100F3000A2F5806212B28A80CA88A2F5806212B2DB
:100F4000CA800A89A2F5806212B20A8100BF94E7C2
:100F50002F48704710B52E49B1F90000FFF783FF05
:100F6000B0F52F7F00DD24E02949B1F90200FFF739
:100F70007AFFB0F52F7F00DD1BE02549B1F90400B1
:100F8000FFF771FFB0F52F7F00DD12E02049B1F9C6
:100F90000600FFF768FFB0F52F7F00DD09E01C4871
:100FA000807A00B905E01A48C07A00B901E0002053
:100FB00010BD00201649088048808880C8800881BC
:100FC0000220887202211248C172002010498881D3
:100FD00000210F48C18101828174C17400200C4935
:100FE00088820120E4E700B52420FFF73BFF00BD25
:100FF00000B52420FFF736FF00BD000000040240CA
:1010000000100140A086010040640240100400204E
:101010005804002000B58BB00121042003F04AF9E8
:101020000121082003F0FFF802220C21D34802F02E
:10103000E4FE02220D21D14802F0DFFE02220E2141
:10104000CE4802F0DAFE02220F21CC4802F0D5FE93
:101050004FF47040099002208DF8280003208DF88D
:10106000290000208DF82A0001208DF82B0009A905
:10107000C24802F037FE5320ADF818000020ADF84A
:101080001A004CF24F3007900020ADF8200006A95E
:10109000BB4804F008FC6020ADF804000120ADF866
:1010A00006000020ADF8100001A9B54804F090FC3E
:1010B00001A9B34804F0C5FC01A9B14804F00EFD34
:1010C00001A9AF4804F070FD0821AD4804F00DFE01
:1010D0000821AB4804F012FE0821A94804F01BFEC9
:1010E0000821A74804F020FE0121A54804F046FC91
:1010F0000121A34804F060FC0BB000BD00B58BB02B
:101100000121082003F0D6F801214FF4C07003F04C
:101110008AF802220A219B4802F06FFE02220B216C
:10112000984802F06AFE02220C21964802F065FE01
:1011300002220021944802F060FE4FF4E050099032
:1011400002208DF8280003208DF8290000208DF85A
:101150002A0002208DF82B0009A98A4802F0C2FD5E
:101160000120099002208DF8280003208DF8290025
:1011700000208DF82A0002208DF82B0009A9824852
:1011800002F0B0FD5320ADF818000020ADF81A00B1
:101190004CF24F3007900020ADF8200006A97B48A4
:1011A00004F081FB6020ADF804000120ADF80600DA
:1011B0000020ADF8100001A9744804F009FC01A951
:1011C000724804F03EFC01A9704804F087FC01A9B4
:1011D0006E4804F0E9FC08216C4804F086FD082103
:1011E0006A4804F08BFD0821684804F094FD08214A
:1011F000664804F099FD0121644804F0BFFB012119
:10120000624804F0D9FB0BB000BD00B58BB00121E2
:10121000022003F060F80121080203F004F8032221
:101220000521594802F0E9FD03220621564802F043
:10123000E4FD03220721544802F0DFFD03220221CE
:10124000514802F0DAFDE420099002208DF82800D0
:1012500003208DF8290000208DF82A0002208DF847
:101260002B0009A9484802F03DFD5320ADF81800B5
:101270000020ADF81A0042F20F7007900020ADF880
:1012800020008DF8220006A9414804F00CFB6020E4
:10129000ADF80400C82003900120ADF8060000203E
:1012A000ADF81000ADF814000120ADF808000020E2
:1012B000ADF81200ADF8160001A9354804F088FB1E
:1012C00001A9334804F0BDFB01A9314804F006FC34
:1012D00001A92F4804F068FC08212D4804F005FD01
:1012E00008212B4804F00AFD0821294804F013FDC9
:1012F0000821274804F018FD0121254804F03EFB91
:101300000121234804F049FF0121214804F054FB46
:101310000BB000BD10B544F62C411C4804F0B1FCE4
:101320004FF4C871194804F0AEFC10BD10B544F27A
:101330005061164804F0A5FC44F62C41134804F013
:10134000A2FC10BD10B54FF47A71C80604F099FCE8
:101350004FF47A71C80604F096FC10BD10B504462F
:1013600021464FF0804004F08CFC10BD10B50446BF
:1013700021464FF0804004F086FC10BD000C024076
:1013800000080040001C024000200240000C004009
:101390000004014000B58BB00121480602F08AFF2D
:1013A0000121082002F03FFF0320099002208DF860
:1013B000280003208DF8290009A9FE4802F092FCBC
:1013C00009220021FB4802F018FD09220121F948F9
:1013D00002F013FD14208DF8200005208DF8210067
:1013E00000208DF8220001208DF8230008A802F0CB
:1013F00088FB13208DF8200005208DF821000020A7
:101400008DF8220001208DF8230008A802F079FB56
:10141000E94803F0CFFA05A803F0F0FB00208DF8AF
:101420001A008DF81B008DF81C008DF81D008DF83A
:101430001E0001208DF81F0000208DF816008DF889
:10144000170005208DF8180007208DF819000320DB
:10145000ADF8140005A9D84803F0C5FA00208DF8AE
:101460000E008DF80F0001208DF810000020ADF85F
:101470000400ADF80600ADF80800ADF80A00ADF8BC
:101480000C0001208DF8110001A803F036FB0122A9
:101490000221C94803F030FE0BB000BD00B58BB08F
:1014A0000121480602F006FF0121880602F002FF32
:1014B0000121022002F0B7FE4FF4405009900220B3
:1014C0008DF828008DF8290009A9BC4802F00AFC13
:1014D00009220C21B94802F090FC09220D21B748DD
:1014E00002F08BFC40208DF8200004208DF82100B4
:1014F00000208DF8220001208DF8230008A802F0BA
:1015000000FB3F208DF8200006208DF821000020F0
:101510008DF8220001208DF8230008A802F0F1FACE
:10152000A74803F047FA05A803F068FB00208DF8F0
:101530001A008DF81B008DF81C008DF81D008DF829
:101540001E0001208DF81F0000208DF816008DF878
:10155000170005208DF8180007208DF819000320CA
:10156000ADF8140005A9964803F03DFA0E208DF859
:101570000E0000208DF80F0001208DF810000020D3
:10158000ADF80400ADF80600ADF80800ADF80A00AB
:10159000ADF80C0001208DF8110001A803F0ADFAA0
:1015A00001220221864803F0A7FD0122114684484A
:1015B00003F0A2FD0BB000BD10B5FFF7EBFEFFF787
:1015C0006DFF10BD2DE9F04186B006460D4614466C
:1015D0004FF00008019500208DF80C008DF80D00EB
:1015E00008208DF80E002088000A8DF80F00217861
:1015F0008DF810106088010A8DF81110A1788DF80F
:101600001210A088010A8DF8131021798DF814109A
:10161000E088010A8DF81510A1798DF8161001A93E
:10162000304603F059FB074600BF3946304603F009
:10163000EBFB30B9404608F101084FF6FF718842D4
:10164000F3DB06B0BDE8F0815E4870475E48704746
:10165000014601F0030000EB80005C4A02EB400011
:101660007047014601F0030000EB8000584A02EB8E
:1016700040007047014601F0030000EB8000554A2E
:1016800002EB400070475448704754487047544834
:1016900070475448704770B505460C4640F2032227
:1016A0002068811A904267D008DC01280DD0A0F292
:1016B000012000285ED001281DD15CE001295CD00A
:1016C000022919D00329F7D135E0E07A454908709D
:1016D000207B4870607B8870A17BE07B41EA002121
:1016E000207C41EA0041607C41EA00603D4948605D
:1016F0000C200DF03DF810E13248008800B231496D
:101700000881207BE17A40EA01202E490880A17BF4
:10171000607B41EA002000B22A494880217CE07BBE
:1017200041EA002000B227498880607C887101204E
:101730000DF01EF8F1E02448008800B2224908812B
:10174000207BE17A40EA01201F490880A17B607B71
:1017500041EA002000B21C494880217CE07B41EA3C
:10176000002000B218498880607C887102200CF04B
:10177000FFFFD2E000BF00BF00BF0F48854261D12C
:101780002078401E184908700846007800EB800059
:101790000E4931F8100000B21349097801EB8101BC
:1017A0000A4A02EB41010881207BE17A40EA0120EC
:1017B0000D491BE0000C02400064004000040240A0
:1017C000006800406E04002078040020BE04002061
:1017D000E6040020A0040020820400208C040020E5
:1017E000960400202800002030000020097801EB3A
:1017F000810122F81100A17B607B41EA002000B248
:101800004749097801EB810102EB41014880217CC5
:10181000E07B41EA002000B24149097801EB8101F7
:1018200002EB41018880607C3D49097801EB810130
:1018300002EB410188713A490978091DC8B20CF0E0
:1018400097FF6AE040F20221206888421ED13548A5
:10185000008800B233490881207BE17A40EA012008
:1018600030490880A17B607B41EA002000B22D490D
:101870004880217CE07B41EA002000B22949888031
:10188000607C88710B200CF073FF46E040F2012170
:10189000206888421ED12448008800B2224908816D
:1018A000207BE17A40EA01201F490880A17B607B10
:1018B00041EA002000B21C494880217CE07B41EADB
:1018C000002000B218498880607C88710A200CF0E2
:1018D0004FFF22E02068B0F5017F1ED11348008839
:1018E00000B212490881207BE17A40EA01200F49C9
:1018F0000880A17B607B41EA002000B20B49488050
:10190000217CE07B41EA002000B208498880607CAD
:10191000887109200CF02CFF00BF00BF70BD0000D3
:1019200030000020820400208C0400209604002057
:1019300000B597B00121880402F0BCFC0121082009
:1019400002F071FC0121480502F06DFC072209211B
:10195000644802F052FA07220821624802F04DFA68
:101960004FF44070159002208DF8580003208DF838
:10197000590000208DF85A0001208DF85B0015A950
:10198000584802F0AFF9584803F00CFD00215648C2
:1019900003F0E4FD00BF544803F02DFE0028FAD107
:1019A0004FF0006001905148029051480390002090
:1019B000049064200590002006904FF4806007900A
:1019C0000020089009904FF480700A9000020B905C
:1019D00000200C9003200D9000200E900F9001A984
:1019E000414803F081FD0022414964313E4803F043
:1019F000DCFD01213C4803F0E4FD00213A4803F0FE
:101A0000ADFD0121384803F0A9FD3848001F02F060
:101A1000A7FD4FF4E13011900020ADF84800ADF87B
:101A20004A00ADF84C00ADF850000C20ADF84E0067
:101A300011A92E48001F02F0FAFD10212B48001FAB
:101A400002F065FF002240F226612848001F02F0E4
:101A50002CFF002240F225512448001F02F025FFF0
:101A6000012240F224412148001F02F01EFF012202
:101A700040211E48001F02F00FFF01211B48001FDC
:101A800002F05DFE27208DF8400000208DF8410017
:101A900003208DF8420001208DF8430010A802F0C9
:101AA00030F817B000BD18B50246FF208DF80000D1
:101AB0008DF801208DF80210FE208DF80300002023
:101AC0000DE01DF80030094C238000BF074B1B1FA1
:101AD0001B8803F04003002BF8D0431CD8B2042825
:101AE000EFDB18BD000C02402860024004480040B3
:101AF0002441012000B587B0002001908DF8080036
:101B00008DF809000390059001208DF8180001A9B7
:101B1000374805F0C4FA07B000BD1FB5012108021F
:101B200002F0D9FB0121080202F02AFC00214FF447
:101B3000807002F025FC012005F015FB00200090CC
:101B4000039002904FF480300190684605F0D6FA79
:101B5000FFF7D0FF01231A461221254805F025FB87
:101B60000121234805F0E1FA1FBD10B504463221DA
:101B70001F4805F0A0FC01231A4621461C4805F029
:101B800014FB1B4805F06DFB00BF0221184805F04F
:101B900089FC0028F9D0164805F09FFB10BD10B550
:101BA0002DED028B002008EE900AFFF7A3FF122014
:101BB000FFF7DBFF08EE900AB8EE680ADFED0D0ACA
:101BC00020EE200AB0EE408A9FED0B0A38EE400A64
:101BD000DFED0A0A80EE201AB3EE090A31EE000AA0
:101BE000B0EE408AB0EE480ABDEC028B10BD00009A
:101BF000002001403333533A5C8F423F0AD7233BE6
:101C000010B50021324804F03CF810BD30B58BB05F
:101C100005460C460121402002F04CFB01218020AA
:101C200002F001FB0121402002F099FB002140203D
:101C300002F095FB09220621264802F0DEF840203A
:101C4000099002208DF8280003208DF8290000203B
:101C50008DF82A0002208DF82B0009A91D4802F0FA
:101C600041F86020ADF804000120ADF80600002026
:101C7000ADF8100001A9164803F0AAFE0821144887
:101C800004F033F80121124803F078FE681E079033
:101C9000601E80B2ADF818000020ADF81A00ADF853
:101CA000200006A90A4803F0FEFD0121084803F0C0
:101CB00083FEFFF7A5FF0BB030BD70B504460D469F
:101CC0000348283004800021014803F0DAFF70BD8A
:101CD00000180040001C024000B585B00121022020
:101CE00002F0A1FA0121880302F0F5FA082101208F
:101CF00002F0FDFB4FF48070009000208DF804008E
:101D000001208DF8060000208DF8070003208DF8D3
:101D100005006946114801F0E5FF4FF4807002901C
:101D200000208DF80C0008208DF80D0001208DF8A2
:101D30000E0002A805F02EF917208DF810000520DE
:101D40008DF8110000208DF8120001208DF813008D
:101D500004A801F0D6FE05B000BD0000000402405A
:101D600001460020F74A914204D2B1F1006F01D33D
:101D70001046B2E0F44A914204D2F24A914201D3B1
:101D8000F148AAE0F14A914204D2EF4A914201D3CC
:101D9000EE48A2E0EE4A914204D2EC4A914201D3CD
:101DA000EB489AE0EB4A914204D2E94A914201D3CE
:101DB000E84892E0E84A914204D2E64A914201D3CF
:101DC000E5488AE0E54A914204D2E34A914201D3D0
:101DD000E24882E0E24A914204D2E04A914201D3D1
:101DE000DF487AE0DF4A914204D2DD4A914201D3D2
:101DF000DC4872E0DC4A914204D2DA4A914201D3D3
:101E0000D9486AE0D94A914204D2D74A914201D3D3
:101E1000D64862E0B1F1016F05D2D44A914202D3B3
:101E20004FF0016059E0D24A914204D2B1F1016F02
:101E300001D3104651E0CF4A914204D2CC4A91429C
:101E400001D3CC4849E0CC4A914204D2C94A9142DC
:101E500001D3C94841E0C94A914204D2C64A9142DD
:101E600001D3C64839E0C64A914204D2C34A9142DE
:101E700001D3C34831E0C34A914204D2C04A9142DF
:101E800001D3C04829E0C04A914204D2BD4A9142E0
:101E900001D3BD4821E0BD4A914204D2BA4A9142E1
:101EA00001D3BA4819E0BA4A914204D2B74A9142E2
:101EB00001D3B74811E0B74A914204D2B44A9142E3
:101EC00001D3B44809E0B44A914204D2B14A9142E4
:101ED00001D3B14801E04FF0026070470146002095
:101EE000984A914203D2B1F1006F00D3B0E0964A14
:101EF000914204D2934A914201D30820A8E0934A28
:101F0000914204D2904A914201D31020A0E0904A1D
:101F1000914204D28D4A914201D3182098E08D4A13
:101F2000914204D28A4A914201D3202090E08A4A09
:101F3000914204D2874A914201D3282088E0874AFF
:101F4000914204D2844A914201D3302080E0844AF5
:101F5000914204D2814A914201D3382078E0814AEB
:101F6000914204D27E4A914201D3402070E07E4AE1
:101F7000914204D27B4A914201D3482068E07B4AD7
:101F8000914204D2784A914201D3502060E0B1F1ED
:101F9000016F04D2754A914201D3582058E0744A27
:101FA000914204D2B1F1016F01D3802050E0714A17
:101FB000914204D26E4A914201D3882048E06E4A91
:101FC000914204D26B4A914201D3902040E06B4A87
:101FD000914204D2684A914201D3982038E0684A7D
:101FE000914204D2654A914201D3A02030E0654A73
:101FF000914204D2624A914201D3A82028E0624A69
:10200000914204D25F4A914201D3B02020E05F4A5E
:10201000914204D25C4A914201D3B82018E05C4A54
:10202000914204D2594A914201D3C02010E0594A4A
:10203000914204D2564A914201D3C82008E0564A40
:10204000914204D2534A914201D3D02000E0D820DB
:1020500070472DE9FE4F0746884691464FF0000B2A
:102060000024A246002002900190009004F076FC2B
:10207000F32004F077FF3846FFF730FF8346CDF8B2
:1020800008B00221029804F0BDFC092802D0601EAD
:10209000BDE8FE8F3C463846FFF762FE8246454665
:1020A00000260EE02046296804F0C8FD092805D165
:1020B000241D2D1D761C4E4503D104E04FF0FF304A
:1020C000E6E75445EED900BF04F055FC3C4600203D
:1020D0000090454600260EE020680190286801998E
:1020E000884202D00098401C0090241D2D1D761CB3
:1020F0004E4500D101E05445EED300BF009810B129
:102100004FF0FF30C4E70020C2E72DE9F047074653
:102110000D4616464FF00008C14600243846FFF72A
:10212000DDFE80462846FFF7D9FE814644463AE068
:102130003146204604F066FC09282FD04FF0FF30CE
:10214000BDE8F087004000080080000800C00008DB
:102150000000010800000208000004080000060852
:102160000000080800000A0800000C0800000E0823
:10217000004010080080100800C01008000011087E
:1021800000001208000014080000160800001808DB
:1021900000001A0800001C0800001E08582C01D17D
:1021A000283400E008344C45C2D90020BDE8F0874F
:1021B0002DE9FC470546884691469A4600240020B2
:1021C0000190009004F0CAFBF32004F0CBFE022241
:1021D00029462846FFF799FF2C464E4600270FE078
:1021E0002046316804F02AFD092805D1241D361D3A
:1021F0007F1C574504D105E04FF0FF30BDE8FC8758
:102200004445EDD900BF04F0B6FB2C464E460027EE
:10221000002000900EE0206801903068019988420B
:1022200002D00098401C0090241D361D7F1C57458D
:1022300000D101E04445EED300BF009810B14FF04B
:10224000FF30DBE70020D9E738B50023002404463F
:1022500000BF06E025680095009D0D60241D091D46
:102260005B1C9342F6D338BD10B5092404F042FE3E
:1022700000F00300184908600846006800B910BD66
:1022800004F058FD0121032004F06AFD04F01DFE56
:102290000446092C00D0F2E704F059FD00BFEEE738
:1022A00010B5092404F026FE00F003000A49086076
:1022B0000846006868B904F03DFD0021032004F0E1
:1022C0004FFD04F002FE0446092C00D010BD04F0BE
:1022D0003EFD00BFFAE700003400002000B587B0E3
:1022E0000121202001F09FFF0121080501F0F3FFEB
:1022F0004FF46070059002208DF8180000208DF8D2
:102300001A0001208DF81B0003208DF8190005A983
:10231000814801F0E7FC052207217F4801F06DFDAF
:10232000052208217C4801F068FD052209217A4830
:1023300001F063FD0121080502F022F800214FF4AD
:10234000801002F01DF80020ADF800004FF48270FC
:10235000ADF802000020ADF804000220ADF8060040
:102360000120ADF808004002ADF80A003820ADF8B1
:102370000C000020ADF80E000720ADF810006946F3
:10238000664804F081F80121644804F077F907B049
:1023900000BD624A12884FF2C7731A405F4B1A8021
:1023A0001A46128802431A801A4612880A431A8073
:1023B0001A46128842F040021A80704770B590B0F9
:1023C00005460E4614460121880501F02CFF4420E5
:1023D0008DF83C0005208DF83D0000208DF83E0072
:1023E00001208DF83F000FA801F08BFB4C4802F054
:1023F000D9FF00BF4A4803F0FEF80028FAD14FF099
:102400006060009045480C300190029600200390D7
:10241000049405904FF48060069000200790089087
:1024200009904FF440300A9000200B900C900D90D2
:102430000E9069463A4803F057F8012210213848B7
:1024400003F019F90021364803F088F834481838A9
:1024500002F0A8FF00BF3248183803F0CCF800287B
:10246000F9D14FF0806000902C480C30019002951B
:10247000402003900494002005904FF48060069063
:1024800000200790089009904FF480300A900020B7
:102490000B900C900D900E9069462148183803F06F
:1024A00023F800211E48183803F058F810B070BD0A
:1024B00010B5044600211A48183803F04FF80021DF
:1024C000174803F04BF800BF1548183803F093F88D
:1024D0000028F9D100BF124803F08DF80028FAD186
:1024E00010490F4803F0B3F80F490D48183803F0AE
:1024F000AEF821460A48183803F051F8214608483A
:1025000003F04DF80121064803F028F801210448A2
:10251000183803F023F810BD0014024000500140A9
:1025200088640240000C00203000002030B58BB0E1
:1025300005460C460121084601F075FE01211020D8
:1025400001F071FE0121084601F0C5FE01220821BB
:10255000A64801F052FC01220921A44801F04DFCDB
:1025600001220D21A24801F048FC01220E21A048C1
:1025700001F043FC4FF44070099002208DF82800D0
:1025800003208DF8290000208DF82A0001208DF805
:102590002B0009A9954801F0A5FB4FF4C040099014
:1025A00009A9934801F09EFB0121084601F0E8FECD
:1025B0000021012001F0E4FE681E0790601E80B239
:1025C000ADF818000020ADF81A00ADF8200006A9FB
:1025D000884803F068F96020ADF804000120ADF8E8
:1025E00006000020ADF810004FF47A70039001A9A6
:1025F000804803F0EDF901A97E4803F022FA01A911
:102600007C4803F06BFA01A97A4803F0CDFA08215F
:10261000784803F06AFB0821764803F06FFB082135
:10262000744803F078FB0821724803F07DFB012118
:10263000704803F0A3F901216E4803F0AEFD0121BB
:102640006C4803F0B9F90BB030BD30B58BB005461E
:102650000C460121022001F02DFE0121022001F093
:10266000E2FD02220521644801F0C7FB012102209E
:1026700001F075FE0021022001F071FE1D208DF891
:10268000140005208DF8150000208DF8160001209B
:102690008DF8170005A801F034FA681E0990601E35
:1026A00080B2ADF820000020ADF82200ADF828007F
:1026B00001221146514803F097FD08A94F4803F045
:1026C000F2F82020069002208DF81C0003208DF8DF
:1026D0001D0000208DF81E0002208DF81F0006A9A5
:1026E000454801F0FFFA6020ADF800000120ADF888
:1026F00002000020ADF80C006946404803F0A1F943
:1027000008213E4803F0FAFA01213C4803F036F96B
:1027100001213A4803F050F90BB030BD7FB50546B2
:102720000C460121102001F0C5FD0121102001F00F
:1027300016FE0021102001F012FE314803F006F8C9
:10274000681E0290601E80B2ADF804000020ADF853
:102750000600ADF80C0001A9294803F0A4F80122F5
:102760001146274803F040FD36208DF80000042074
:102770008DF8010000208DF8020001208DF8030083
:10278000684601F0BEF901211D4803F015F97FBD2F
:102790003EB505460C460121402001F08BFD01218C
:1027A000402001F0DCFD0021402001F0D8FD681E32
:1027B0000190601E80B2ADF800000020ADF802006C
:1027C000ADF8080069460F4803F06DF801210D4887
:1027D00003F0F2F83EBD10B50121084803F01BFDDF
:1027E00018B10121054803F013FD10BD000002409F
:1027F00000100240000001400004024000040040BC
:10280000001000400018004010B50446032C00DD05
:1028100010BD0420A04081B21F4801F0E1FA00BFC2
:10282000F6E71CB50121802001F0FDFC3C20009062
:1028300001208DF8040000208DF8060003208DF89B
:10284000050001208DF807006946134801F04AFA97
:10285000002404E02046FFF7D7FF601CC4B2042C1C
:10286000F8DB1CBD10B50446032C00DD10BD0420B0
:10287000A04081B2084801F0B1FA00BFF6E710B5F8
:102880000446032C00DD10BD0420A04081B20248A4
:1028900001F0AFFA00BFF6E7001C0240F7480078ED
:1028A000E02806D1F5488178407801EB0020F44912
:1028B0000880F348704700B587B0F24801F050FE39
:1028C0000121402001F0AFFC08220921EE4801F06F
:1028D00094FA08220E21EC4801F08FFAEB4903C963
:1028E000CDE9050105A9E84801F0FCF94FF4804065
:1028F000059000208DF81B0005A9E34801F0F2F9CE
:102900000121202001F0E7FC01A801F0F6FE4FF4C0
:10291000E13001900C20ADF80E0001A9D94801F07A
:1029200086FEDA48083000680090684601F0E9F851
:10293000002240F22551D34801F0B7FF002240F2B7
:102940002661D04801F0B1FF002240F22771CD4846
:1029500001F0ABFF012240F22441CA4801F0A5FF7B
:102960000121C84801F0EBFE07B000BD00B591B0F1
:102970000121880501F057FCC54802F013FD02A8AB
:1029800002F0DBFD4FF020600290BE48001D039076
:10299000C04804900D20069040200590000108904A
:1029A00000200B904FF400300C9002A9B84802F0C0
:1029B0009BFDB6480C300068019001A801F0A1F819
:1029C00001221021B24802F056FE01228021AD48BA
:1029D00001F062FF0021AE4802F0C0FD2322AE49A3
:1029E000AE480DF08FF811B000BD00B591B00121D7
:1029F000880501F018FCA648783802F0D3FC02A83C
:102A000002F09BFD4FF0206002909E48001D039055
:102A10009A4804900D200690002005904FF48060A5
:102A2000089080100B904FF440300C9000229C498D
:102A30009748783802F0B9FD01219548783802F0BE
:102A4000C0FD02A99248783802F04EFD8F48103040
:102A50000068019001A801F054F8012210218C486F
:102A6000783802F008FE01224021864801F014FF68
:102A700001218748783802F071FD232289498A486C
:102A80000DF040F811B000BD10B540F227717D483F
:102A900001F046FF28B9002240F22661794801F092
:102AA00004FF10BD10B5002440F22441754801F028
:102AB00037FFA8B3734801F071FE08200BF058FEF1
:102AC00000217348783802F049FD78497048783819
:102AD00002F0BDFD6E48783802F083FD58B96C48AD
:102AE000783802F05EFDC0F10D04224663496E485D
:102AF0000DF052F80AE06648783802F052FDC0F155
:102B00000D042246664968480DF046F80D216048DC
:102B1000783802F044FD01215D48783802F01EFD4E
:102B200010BD10B5FFF7BEFFFFF7AEFF10BD10B52B
:102B30005F495748783802F0BBFDF0B15C49544812
:102B4000783802F084FD5248783802F04AFD50B9D6
:102B50000D224A4954480DF01FF800214C4878389E
:102B600002F01DFD09E00D224D494F480DF014F80B
:102B700000214748783802F012FD10BD10B500243E
:102B80004C49434802F094FDF8B14A49404802F0EC
:102B90005EFD00213E4802F0E1FC012240F2266188
:102BA000384801F082FE3D480DF091F868B10D22E1
:102BB00038493A480DF02AF80446A1B2344802F0E8
:102BC000EEFC0121324802F0C9FC10BD70B504468C
:102BD0000D462A4621462F480FF0C1F929462C48B8
:102BE00002F0DDFC01212A4802F0B8FC70BD2DE99D
:102BF000F04104460D46002628480DF068F80746C7
:102C00002A46214625480CF0C7FF06464FB90D223B
:102C1000204922480CF0FAFF85B229461C4802F0F0
:102C2000BEFC01211A4802F099FC3046BDE8F08153
:102C300070B504460D4600262CB12A4621461A4896
:102C40000CF0E4FF0646304670BD10B50446214640
:102C500015480DF01AF810BD10B50446214612486B
:102C60000DF01EF810BD10B50F480DF030F810BD76
:102C700010B50D480CF089FF10BD0000FC040020C9
:102C8000380000200014014000180240D05701080D
:102C9000A06402401605002042060020980600208D
:102CA00009050020650600208806002000080010A5
:102CB00000880010008020201CB50121352001F083
:102CC000B2FA2020009000208DF8040003208DF837
:102CD000050002208DF807006946534801F002F80C
:102CE0003C20009000208DF8040003208DF80500A2
:102CF00002208DF8070069464C4800F0F3FF602081
:102D0000009000208DF8040003208DF805000220BB
:102D10008DF807006946464800F0E4FF0220009065
:102D200000208DF8040003208DF8050002208DF8A6
:102D3000070069463F4800F0D5FF1CBD1CB50121C6
:102D4000372001F070FA012000908DF80400002077
:102D50008DF8060003208DF8050002208DF807008D
:102D60006946344800F0BEFF0121324801F038F8CE
:102D700041F21000009001208DF8040000208DF831
:102D8000060003208DF8050002208DF80700694633
:102D9000274800F0A7FF41F21001254801F020F874
:102DA0004FF48170009001208DF8040000208DF810
:102DB000060002208DF805008DF8070069461E48C0
:102DC00000F090FF4FF489711B4801F009F80320CF
:102DD000009001208DF8040000208DF806000320EB
:102DE0008DF8050002208DF8070069460F4800F0B5
:102DF00079FF03210D4800F0F3FF1020009001201F
:102E00008DF8040000208DF8060003208DF80500E1
:102E100002208DF807006946034800F063FF102187
:102E2000014800F0DDFF1CBD000002400008024028
:102E300000100240001402400004024030B589B086
:102E400004460D460121084601F034FA01210846E6
:102E500001F0E9F90F20079002208DF820000320EF
:102E60008DF8210000208DF8220002208DF823002B
:102E700007A9FC4800F036FF01220021F94800F0C4
:102E8000BCFF01221146F74800F0B7FF01220221E2
:102E9000F44800F0B2FF01220321F24800F0ADFF38
:102EA000ADF810500020ADF812000594ADF81800F0
:102EB00004A94FF0804002F0F6FC0020ADF80000BD
:102EC000ADF802000120ADF804000020ADF80600C6
:102ED000ADF8080069464FF0804003F0BBF80420CD
:102EE000ADF800000020ADF80200ADF80600ADF826
:102EF000080069464FF0804003F0ACF80820ADF8B8
:102F000000000020ADF80200ADF80600ADF80800A2
:102F100069464FF0804003F09DF80C20ADF80000AA
:102F20000020ADF80200ADF80600ADF808006946D3
:102F30004FF0804003F08EF801221146900703F015
:102F400053F901220221480703F04EF9012204211E
:102F5000080703F049F901220821C80603F044F9E3
:102F600001221021880603F03FF90121880702F0B1
:102F700023FD1C208DF80C0000208DF80D00012091
:102F80008DF80E008DF80F0003A800F0BAFD09B00F
:102F900030BD10B50121880703F04EF901218807E3
:102FA00003F036F9B048007800F08000002858D1CE
:102FB0000121880703F02FF9D0B1AB48007800F069
:102FC0004000A8B1A848007800F03F003F280AD18F
:102FD000A548007840F08000A34908704FF0FF300A
:102FE000A249086004E0A0480078401C9E4908708F
:102FF0000221480703F00FF998B39B48007800F0CE
:10300000400088B19848007840F0800096490870E8
:103010004FF0804003F09CF89449086000214FF085
:10302000804002F0E4FE1CE000208F4908708F49C8
:1030300008608D48007840F040008B4908700021FE
:103040004FF0804002F0B8FC00214FF0804002F0C9
:1030500073FC0221480702F0CAFE0121880702F032
:10306000ABFC8348007800F08000002858D1012193
:10307000880703F0D0F8D0B17D48007800F0400018
:10308000A8B17B48007800F03F003F280AD178487B
:10309000007840F08000764908704FF0FF307549A5
:1030A000086004E072480078401C714908700421EF
:1030B000080703F0B0F898B36D48007800F04000BE
:1030C00088B16B48007840F08000694908704FF083
:1030D000804003F040F86749086000214FF08040CD
:1030E00002F097FE1CE00020614908706149086009
:1030F0005F48007840F040005D49087000214FF0C3
:10310000804002F059FC00214FF0804002F014FC96
:103110000221480702F07DFE0121880702F04CFCE5
:103120005548007800F08000002858D10121880718
:1031300003F071F8D0B15048007800F04000A8B119
:103140004D48007800F03F003F280AD14A480078F7
:1031500040F08000484908704FF0FF304749086050
:1031600004E045480078401C434908700821C8061F
:1031700003F051F898B34048007800F0400088B15F
:103180003D48007840F080003B4908704FF0804097
:1031900002F0E4FF3949086000214FF0804002F05E
:1031A00052FE1CE00020344908703449086032485F
:1031B000007840F040003049087000214FF0804016
:1031C00002F0FAFB00214FF0804002F0B5FB022133
:1031D000480702F038FE0121880702F0EDFB28487D
:1031E000007800F0800000286BD10121880703F0EF
:1031F00012F8D0B12248007800F04000A8B1204871
:10320000007800F03F003F280AD11D48007840F0C8
:1032100080001B4908704FF0FF301A49086004E035
:1032200017480078401C164908701021880602F0E3
:10323000F2FFB0B11248007800F0400020B310480F
:10324000007840F080000E4908704FF0804002F096
:1032500088FF0C49086000214FF0804002F00DFE0D
:103260002FE02EE0000002403C0000204000002043
:1032700044000020480000204C00002050000020A6
:103280005400002058000020002073490870734942
:1032900008607148007840F040006F4908700021D4
:1032A0004FF0804002F088FB00214FF0804002F098
:1032B00043FB0221480702F0E0FD0121880702F0EC
:1032C0007BFB1F214FF0804002F0B6FF10BD2DE9BF
:1032D000FF4F00BF00BF00BF00BFDFF884C19CF8F4
:1032E00000C00CF0800CBCF1000F26D0DFF870C1DC
:1032F0009CF800C00CF03F0C4FEAEC7160464FF0B8
:10330000FF384FF0000C8146A9FB08BE01FB08E81E
:1033100000FB0C815846DFF84CC1DCF800C010EB14
:103320000C0041F100014FF0000CDFF8348188F807
:1033300000C0DDF800C0CCE90001DFF82CC19CF82A
:1033400000C00CF0800CBCF1000F25D0DFF818C1D4
:103350009CF800C00CF03F0C4FEAEC7362464FF053
:10336000FF3C4FF000089146A9FB0CBE03FB0CECA0
:1033700002FB08C35A46DFF8F4C0DCF800C012EBC9
:103380000C0243F10003C446DFF8DC8088F800C07B
:10339000DDF804C0CCE90023DFF8D4C09CF800C0FD
:1033A0000CF0800CBCF1000F25D0DFF8C4C09CF8F5
:1033B00000C00CF03F0C4FEAEC7564464FF0FF3C48
:1033C0004FF00008A146A9FB0CBE05FB0CEC04FB6A
:1033D00008C55C46DFF89CC0DCF800C014EB0C04A8
:1033E00045F10005C446DFF8888088F800C0DDF8A4
:1033F00008C0CCE90045DFF860C09CF800C00CF0C4
:10340000800CBCF1000F25D0DFF84CC09CF800C048
:103410000CF03F0C4FEAEC7766464FF0FF3C4FF064
:103420000008B146A9FB0CBE07FB0CEC06FB08C765
:103430005E46DFF828C0DCF800C016EB0C0647F14A
:103440000007C446DFF8108088F800C0DDF80CC023
:10345000CCE90067BDE8FF8F540000205800002031
:103460003C000020400000204400002048000020D4
:103470004C0000205000002000B597B00121022030
:1034800000F0D1FE0121102000F025FF0121880568
:1034900000F0C9FE0121102000F072FF0021102071
:1034A00000F06EFF8020159002208DF8580000205B
:1034B0008DF85A0003208DF8590000208DF85B002C
:1034C00015A9FE4800F00EFC07221146FB4800F04B
:1034D00094FC0121102000F053FF0021102000F087
:1034E0004FFF4020159002208DF8580000208DF8E5
:1034F0005A0003208DF8590000208DF85B0015A9B3
:10350000EE4800F0EFFB07220621EC4800F075FCC6
:10351000EB4801F025F8EB4811904FF48050ADF8DE
:1035200048004000ADF84A00C010ADF84C0004203F
:10353000ADF84E000020ADF8500011A9E04801F0B0
:1035400076F81021DE4801F0E2F9012240F2244130
:10355000DB4801F0AAF901224021D94801F09CF989
:103560000121D74801F0EBF825208DF84000062016
:103570008DF8410000208DF8420001208DF84300B5
:1035800010A800F0BEFA0021CF4801F0E7FF00BF0D
:10359000CD48006800F001000028F9D1CA4801F0C8
:1035A00001FF4FF000600190C548001D0290C74820
:1035B00003900020049032200590002006904FF4E4
:1035C000806007900020089009904FF480700A9066
:1035D0004FF440300B9000200C900D900E900F9007
:1035E00001A9B94801F080FF0022B8492E31B64840
:1035F00001F0DBFF0121B44801F0E3FF0021B248F4
:1036000001F0ACFF0121B04801F0A8FF17B000BDE8
:103610000146002901DD08467047484200B2FBE739
:1036200010B5AB49098808B2FFF7F2FF40F2DA2182
:10363000884200DD79E0A649898808B2FFF7E8FFF3
:1036400040F2DA21884200DD6FE0A149098908B221
:10365000FFF7DEFF40F2DA21884200DD65E09C4999
:10366000898908B2FFF7D4FF40F2DA21884200DDF1
:103670005BE097480069B0F5C87F07DA94480069B5
:10368000642803DD0320924908611CE0904800692A
:10369000B0F5167F08DD8E480069B0F5AF6F03DA2C
:1036A00002208B4908610EE089480069B0F5C86FB7
:1036B00008DD87480069B0F5FA6F03DA0120844914
:1036C000086100E031E082484069B0F5167F03DA16
:1036D00001207F49486109E07D484069B0F5167FC7
:1036E00003DD02207A49486100E01EE07848C069A5
:1036F000B0F5167F03DA01207549C86109E0744806
:10370000C069B0F5167F03DD02207149C86100E091
:103710000BE06F49898C08B2FFF77AFF40F2DA219B
:10372000884200DD01E0002010BD002068490860EB
:1037300048608860C860086148618861C861086243
:1037400048628862C862086348638863C86301206E
:10375000EAE770B504460D4604B105B970BD60785E
:10376000A17840EA0120C0F30A002860A078C010C8
:10377000E17840EA4110C0F30A006860E078801107
:10378000217940EA8100617940EA8120C0F30A0092
:10379000A86060794010A17940EAC110C0F30A0026
:1037A000E860A0790011E17940EA0110C0F30A0055
:1037B0002861E079C011217A40EA4100617A40EA4B
:1037C0004120C0F30A006861607A8010A17A40EA63
:1037D0008110C0F30A00A861A07A4011E17A40EAA2
:1037E000C100E861207B617B40EA0120C0F30A0050
:1037F0002862607BC010A17B40EA4110C0F30A0040
:103800006862A07B8011E17B40EA8100217C40EA74
:103810008120C0F30A00A862207C4010617C40EA4D
:10382000C110C0F30A00E862607C0011A17C40EA8C
:103830000110C0F30A002863A07CC011E17C40EABB
:103840004100217D40EA4120C0F30A006863207DE9
:103850008010617D40EA8110C0F30A00A863607D9A
:103860004011A17D40EAC100E86340F2E3312868DD
:10387000081A1749086040F2E6316868081A1449C6
:10388000486040F2F231A868081A1149886040F295
:10389000EB31E868081A0E49C86028690861686950
:1038A0004861A8698861E869C861286A0862686A2D
:1038B0004862A86AA0F5806088620BE000040240BC
:1038C00000100140A086010040640240A8060020CC
:1038D00044070020E86AA0F58060C862286BA0F564
:1038E00080600863686BA0F580604863A86BA0F5F2
:1038F00080608863E86BA0F58060C863FFF790FE86
:1039000000BF2BE710B506F066FA012801D004F0DD
:103910007BF810BD70B50446042000F03FF9324832
:10392000047025464FF47A70454301202F490880E2
:103930004FF0E020006940F002004FF0E021086104
:1039400008464561006940F00100086170BD70B52E
:10395000034600224FF0E0267569234E367803FBBC
:1039600006F44FF0E026B16910E04FF0E026B069B0
:1039700088420BD0884202D20E1A324402E02E1A3C
:103980000E4432440146A24200D300E0EDE700BFFE
:1039900070BD70B5044606F01EFA012811D0134818
:1039A0000088844206DB1148008894FBF0F5284625
:1039B00005F0B7FB0D48008894FBF0F100FB1140C7
:1039C00084B24FF47A7104FB01F0FFF7C0FF70BDC1
:1039D00030B50446002504E04FF47A70FFF7B7FFD6
:1039E0006D1CA542F8D330BD5C0000205E000020B5
:1039F000014600BF00207047014600BF002070470D
:103A0000C2B2294B1A8000BF274A121F128802F047
:103A10004002002AF8D0704710B586B00446012154
:103A2000402000F000FC0121202000F043FC08228F
:103A300009211E4800F0E1F908220E211B4800F080
:103A4000DCF902208DF814008DF8150000208DF8A7
:103A5000160001208DF817004FF48440049004A94B
:103A6000134800F03FF900940020ADF80400ADF8D1
:103A70000600ADF80800ADF80C000C20ADF80A0007
:103A800069460948001F00F0D2FD01210648001FC9
:103A900000F055FE06B010BD10B540F225510548A6
:103AA00000F03EFF10BD000004140140000C024075
:103AB00000180240001001400948804709480047AB
:103AC000FEE7FEE7FEE7FEE7FEE7FEE7FEE7FEE7CE
:103AD000FEE7FEE704480549054A064B704700002B
:103AE000B1070008AD01000888440120884A012080
:103AF000884601208846012032490143324A11603C
:103B0000704770B5002100230F22C4781CB32E4CDF
:103B1000246804F4E064C4F5E064C4F30721C1F14F
:103B20000404E3B20A4144789C40E1B28478144032
:103B300021430C07210E254C05786155047804F0CB
:103B40001F050124AC4005786D11AD0005F1E0259D
:103B5000C5F8004109E0047804F01F050124AC40D9
:103B60001B4D0678761145F8264070BD194A0A406B
:103B70000243154B1B1F1A60704739B1124A121DC0
:103B800012680243104B1B1D1A6006E00E4A121DFC
:103B9000126882430C4B1B1D1A607047042808D121
:103BA0004FF0E021096941F004014FF0E02211617A
:103BB00007E04FF0E021096921F004014FF0E02215
:103BC000116170470000FA050CED00E000E400E030
:103BD00080E100E080FFFF1F10B504469848844252
:103BE00008D10121084600F087FB0021012000F0E8
:103BF00083FB76E09348844208D10121022000F043
:103C00007BFB0021022000F077FB6AE08E488442B3
:103C100008D10121042000F06FFB0021042000F0F6
:103C20006BFB5EE08948844208D10121082000F046
:103C300063FB0021082000F05FFB52E084488442CF
:103C400008D10121102000F057FB0021102000F0C6
:103C500053FB46E07F48844208D10121202000F038
:103C60004BFB0021202000F047FB3AE07A488442D9
:103C700008D10121402000F03FFB0021402000F04E
:103C80003BFB2EE07548844208D10121802000F0E2
:103C900033FB0021802000F02FFB22E0704884429B
:103CA00008D10121801500F027FB0021A01500F0AC
:103CB00023FB16E06B48844208D10121401500F037
:103CC0001BFB0021601500F017FB0AE066488442E8
:103CD00007D10121001500F00FFB0021201500F095
:103CE0000BFB10BDF0B50A4600210023002400BFE5
:103CF0003DE0012505FA01F3156805EA03049C423D
:103D000034D105684F000326BE40B54305601579E0
:103D10004E00B5400668354305601579012D02D087
:103D20001579022D16D185684F000326BE40B54394
:103D3000856055794E00B540866835438560456895
:103D400001268E40B5434560456896798E40B6B2EF
:103D500035434560C5684F000326BE40B543C56086
:103D6000D5794E00B540C6683543C560491C102959
:103D7000BFD3F0BD4FF6FF710160002101714171A9
:103D80008171C171704708B54FF480320092009A7A
:103D90000A430092009AC261C161009AC261C2697D
:103DA0000092C269009208BD0246002013690B40D0
:103DB0000BB1012000E0002070470146086980B285
:103DC00070470246002053690B400BB1012000E010
:103DD000002070470146486980B2704701837047F0
:103DE000418370470AB1018300E04183704741611C
:103DF000704742694A4042617047F0B50023002491
:103E00004D07ED0E02FA05F3CE1000F1200555F82E
:103E100026504E07F70E0F26BE40B543CF1000F1D7
:103E2000200646F82750CE1000F1200555F8265000
:103E300045EA0304CE1000F1200545F82640F0BD08
:103E4000000002400004024000080240000C024052
:103E5000001002400014024000180240001C024002
:103E6000002002400024024000280240F64800687A
:103E700040F00100F44908600020F349083108606F
:103E8000F1480068F1490840EF490860F048091D11
:103E90000860F048EC4984310860ED481038091D8D
:103EA0000860E948006820F48020E74908600020A5
:103EB000E5490C310860E4498C3108607047012104
:103EC000E14A921C117011460870704710B5014606
:103ED0000022002300204A11012A02D1DA4C236873
:103EE00008E0022A03D1D84C7034236802E0D64C93
:103EF0007434236801F01F02012494401C400CB16B
:103F0000012000E0002010BD38B500200090002402
:103F1000002500BF3120FFF7D9FF05460098401C5F
:103F200000900098B0F5A04F01D0002DF2D03120C4
:103F3000FFF7CCFF08B1012400E00024204638BD83
:103F400001460020C04A106820F0F80040EAC10095
:103F500010607047C049086070470021BA4A70324B
:103F600011701170012802D004280AD104E0012147
:103F7000B54A7032117005E00521B34A70321170F4
:103F800000E000BF00BF7047B4490860704770B5DB
:103F9000049C41EA82150126C6EB530645EA064514
:103FA000054345EA0465A84E361D356070BDAA4933
:103FB0000866704710B5830143EA016343EA027360
:103FC000A14C8434236010BDA3498866704710B5A6
:103FD000830143EA016343EA02739B4C8834236004
:103FE00010BD9D49086770479B49C86470470246E9
:103FF0000020954B0833186820F0EC6042EA01037A
:104000001843914B083318607047024600208E4BCE
:104010000833186820F0784042EA010318438A4BBD
:1040200008331860704701460020874A083210683C
:1040300020F0030008431060704783480830006890
:1040400000F00C007047014600207F4A08321068DB
:1040500020F0F000084310607047014600207A4AC3
:104060000832106820F4E0500843106070470146A1
:104070000020754A0832106820F4604040EAC10010
:1040800010607047F0B500210022002402250026B0
:1040900002236D4F08373F6807F00C0121B1042956
:1040A00005D0082937D105E06D4F076036E06D4F28
:1040B000076033E0644F3F1D3F68C7F38056624F8F
:1040C0003F1D3F6807F03F036EB1664FB7FBF3F744
:1040D000DFF874C10CF1040CDCF800C0CCF3881CD0
:1040E00007FB0CF40CE05E4FB7FBF3F7DFF858C1A9
:1040F0000CF1040CDCF800C0CCF3881C07FB0CF4BA
:10410000514F3F1D3F68C7F301477F1C7D00B4FB43
:10411000F5F7076002E0524F076000BF00BF4A4F4B
:1041200008373F6807F0F00109094F4F7A5C0768CC
:10413000D7404760444F08373F6807F4E051890A89
:10414000494F7A5C4768D74087603F4F08373F68E0
:1041500007F46041490B444F7A5C4768D740C76019
:10416000F0BD002100F44072B2F5407F0AD1364A1A
:104170000832116821F4F8113C4A02401143324AD6
:1041800008321160304A70321268C0F30B031A43D0
:104190002D4B70331A6070473049443908607047BE
:1041A0002E49403908607047314908607047014620
:1041B0000020254A8C32106820F01F004A1E104350
:1041C000214A8C3210607047014600201E4A8C3212
:1041D000106820F4F8504A1E40EA02201A4A8C3235
:1041E0001060704701460020174A8C32106820F496
:1041F000401008431060704701460020124A8C327C
:10420000106820F440000843106070470146002009
:104210000D4A8C32106820F440300843106070471B
:1042200014490860704739B1074A303212680243B6
:10423000054B30331A6006E0034A3032126882437D
:10424000014B30331A60704700380240FFFFF6EA36
:10425000103000240030002000004742800E47420A
:104260000024F400001BB70066000020FFFCFF0FD5
:104270005C014742E011474229B1934A1268024368
:10428000914B1A6004E0904A126882438E4B1A6088
:10429000704739B18C4A121D126802438A4B1B1DAC
:1042A0001A6006E0884A121D12688243864B1B1D65
:1042B0001A60704739B1844A0C3212680243824B4B
:1042C0000C331A6006E0804A0C32126882437E4B3F
:1042D0000C331A60704739B17B4A103212680243BE
:1042E000794B10331A6006E0774A10321268824325
:1042F000754B10331A60704739B1734A243A12680B
:104300000243714B243B1A6006E06F4A243A12685C
:1043100082436D4B243B1A60704739B16A4A203A98
:1043200012680243684B203B1A6006E0664A203A56
:1043300012688243644B203B1A60704739B1624A6D
:104340001C3A12680243604B1C3B1A6006E05E4A4E
:104350001C3A126882435C4B1C3B1A60704739B1AF
:10436000594A143A12680243574B143B1A6006E04C
:10437000554A143A12688243534B143B1A607047F3
:1043800039B1514A103A126802434F4B103B1A6040
:1043900006E04D4A103A126882434B4B103B1A60BC
:1043A000704739B1484A1C3212680243464B1C33ED
:1043B0001A6006E0444A1C3212688243424B1C33A6
:1043C0001A60704739B1404A2032126802433E4BAE
:1043D00020331A6006E03C4A2032126882433A4B8E
:1043E00020331A60704739B1374A243212680243C9
:1043F000354B24331A6006E0334A24321268824374
:10440000314B24331A60704739B12F4A2C3212686D
:1044100002432D4B2C331A6006E02B4A2C321268D3
:104420008243294B2C331A60704739B1264A303207
:1044300012680243244B30331A6006E0224A3032BD
:1044400012688243204B30331A607047012808D12C
:104450001D493C31096841F008011B4A3C3211609A
:1044600007E019493C31096821F00801164A3C323D
:104470001160704739B1144A273A12780243124B3F
:10448000273B1A7006E0104A273A127882430E4BF7
:10449000273B1A7070470C484030006840F080702D
:1044A000094940310860704701460020064A283A11
:1044B00012680A400AB1012000E00020704702495A
:1044C00026390870704700003438024010B50121C9
:1044D0008803FFF755FF00214FF48040FFF750FF9E
:1044E00010BD1C49086070471B490862704730B511
:1044F00000228B071C0F0F2303FA04F2154B08331D
:104500008C1053F824309343124C08348D1044F827
:10451000253023468C1053F824308C07240F00FAE2
:1045200004F423430B4C08348D1044F8253030BD7F
:104530000949DC310860704708490860704700206D
:1045400004492031096801F4807109B1012000E0BB
:104550000020704700380140000027420004274235
:1045600010B50446FA48844208D101211020FFF713
:1045700007FF00211020FFF703FF57E0F5488442B2
:1045800009D101214804FFF7EAFE00214FF4003071
:10459000FFF7E5FE4AE0F048844209D10121880492
:1045A000FFF7DDFE00214FF48020FFF7D8FE3DE04D
:1045B000EA48844209D10121C804FFF7D0FE002156
:1045C0004FF40020FFF7CBFE30E0E548844209D1EC
:1045D00001210805FFF7C3FE00214FF48010FFF70B
:1045E000BEFE23E0DF48844208D101212020FFF7EE
:1045F000C7FE00212020FFF7C3FE17E0DA488442FF
:1046000009D101218807FFF7AAFE00214FF0804061
:10461000FFF7A5FE0AE0D548844207D101214005F5
:10462000FFF79DFE00216005FFF799FE10BD2DE903
:10463000FF4705460E460024A14600BFA046B089AC
:1046400000B100BF2C8A24F44054F08804432C822B
:10465000AC8941F20C608443B08831890843718988
:1046600008430443AC81AC8A24F44074B089044309
:10467000AC826846FFF706FDB548854202D0B948CE
:10468000854202D1DDF80C9001E0DDF80890A889A0
:1046900000F4004040B109EBC90000EB091031689B
:1046A0004900B0FBF1F707E009EBC90000EB091086
:1046B00031688900B0FBF1F76420B7FBF0F004012A
:1046C0002009642101FB1078A88900F4004040B162
:1046D000322000EBC800B0FBF1F000F0070004430B
:1046E00008E0322000EB08106421B0FBF1F000F08C
:1046F0000F0004432C81BDE8FF874FF41651016081
:1047000000218180C18001810C21418100218181B2
:10471000704710B502460020108A20F470600B88A4
:104720004C8823438C882343CC882343184310822E
:1047300010BD0021018041808180C180704721B17E
:10474000828942F40052828104E082894DF6FF732F
:104750001A4082817047028B02F47F420283028BEF
:104760000A430283704721B1828942F40042828168
:1047700003E08289C2F30E028281704721B1828AEE
:1047800042F40062828204E0828A4FF2FF731A4090
:1047900082827047C1F30802828070470146888890
:1047A000C0F308007047028A4FF6F0731A40028285
:1047B000028A0A430282704721B1828942F00202D2
:1047C000828104E082894FF6FD731A40828170472E
:1047D00082894FF2FF731A40828182890A43828163
:1047E0007047028A4FF6DF731A400282028A0A4338
:1047F0000282704721B1028A42F48042028204E0C0
:10480000028A4BF6FF731A4002827047818941F099
:1048100001018181704721B1828A42F008028282BF
:1048200004E0828A4FF6F7731A4082827047028B47
:10483000D2B20283028B42EA01220283704721B185
:10484000828A42F02002828204E0828A4FF6DF737D
:104850001A408282704721B1828A42F0100282821D
:1048600004E0828A4FF6EF731A4082827047828A90
:104870004FF6FB731A408282828A0A438282704713
:1048800021B1828A42F00202828204E0828A4FF6DB
:10489000FD731A40828270471AB1838A0B43838268
:1048A00002E0838A8B4383827047F0B5034600247D
:1048B00000260025002040F66A17B94200D100BF4B
:1048C0001846C1F3421401F01F06012707FA06F546
:1048D000012C01D10C3004E0022C01D1103000E099
:1048E00014301AB107682F43076002E00768AF432E
:1048F0000760F0BD02460020B1F5007F00D100BF87
:1049000013880B400BB1012000E00020704701F438
:104910000072B2F5007F00D100BFCA430280704729
:1049200070B50246002400230025002040F66A16D8
:10493000B14200D100BFC1F3421501F01F030126AF
:1049400006FA03F3012D13D19689334017E00000D6
:10495000001001400044004000480040004C00406E
:10496000005000400014014000780040007C0040EE
:10497000022D02D1168A334001E0968A33400C1290
:10498000012606FA04F41688344013B10CB1012054
:1049900000E0002070BD10B50022002340F66A142C
:1049A000A14200D100BF0A1201249440A3B2DC430B
:1049B000048010BD10B50446FE48844209D101218F
:1049C0004806FFF7CCFC00214FF00070FFF7C7FC52
:1049D00008E001218806FFF7C2FC00214FF080604B
:1049E000FFF7BDFC10BD30B502460020002314685F
:1049F00024F002041460146844F00104146000E020
:104A00005B1C546804F001041CB94FF6FF74A34208
:104A1000F6D1546804F001040CB900206CE08C79E4
:104A2000012C04D1146844F08004146003E014687D
:104A300024F080041460CC79012C04D1146844F073
:104A40004004146003E0146824F0400414600C7AFD
:104A5000012C04D1146844F02004146003E01468AD
:104A600024F0200414604C7A012C04D1146844F022
:104A70001004146003E0146824F0100414608C7AAD
:104A8000012C04D1146844F00804146003E0146895
:104A900024F008041460CC7A012C04D1146844F08A
:104AA0000404146003E0146824F0040414608C7897
:104AB000A407CD7844EA05640D7944EA05444D79AC
:104AC00044EA05540D886D1E2C43D461146824F00B
:104AD00001041460002300E05B1C546804F001042E
:104AE0001CB14FF6FF74A342F6D1546804F00104E0
:104AF0000CB1002000E0012030BD10B50021837A08
:104B0000012202FA03F1AC4A126842F00102AA4BF8
:104B10001A60A94A1C3212688A43A74B1C331A60D8
:104B2000027BCAB9A44A0C3212688A43A24B0C33E6
:104B30001A604288C38842EA03439F4A4032847A1B
:104B400042F834300288838842EA03439A4A40326A
:104B5000847A02EBC4025360027B012A19D1964A7F
:104B60000C3212680A43944B0C331A604288038853
:104B700042EA0343904A4032847A42F83430C28891
:104B8000838842EA03438C4A4032847A02EBC402AF
:104B90005360C27A3AB9884A121D12688A43864B1A
:104BA0001B1D1A6006E0844A121D12680A43824BDC
:104BB0001B1D1A60028932B97F4A143212688A4377
:104BC0007D4B14331A600289012A06D17A4A1432C5
:104BD00012680A43784B14331A60427B012A06D1CB
:104BE000754A1C3212680A43734B1C331A60724AAE
:104BF000126822F00102704B1A6010BD0021817111
:104C0000C171017241728172C1728170C1700321E0
:104C100001710221417101210180704766490968D3
:104C200041F00101644A11601146096843F60E72B1
:104C30009143614A11601146096841EA00211160FF
:104C40001146096821F001011160704721B1026825
:104C500042F48032026003E0026822F48032026093
:104C60007047E1B1026842F0800202604FF4C27204
:104C7000125842F480734FF4C27213504FF4CA7248
:104C8000125842F480734FF4CA7213504FF4D27228
:104C9000125842F480734FF4D27213501BE0026832
:104CA00022F0800202604FF4C272125822F4807324
:104CB0004FF4C27213504FF4CA72125822F4807328
:104CC0004FF4CA7213504FF4D272125822F4807308
:104CD0004FF4D2721350704710B50246002093680B
:104CE00003F08063B3F1806F00D110E0936803F0AC
:104CF0000063B3F1006F01D1012008E0936803F075
:104D00008053B3F1805F01D1022000E00420042829
:104D100079D002F5C07303EB00131B6803F00104A4
:104D200002F5C07303EB00131C600B7A7BB94B7A5E
:104D30000C8843EA445302F5C07404EB0014246861
:104D4000234302F5C07404EB0014236010E00B7AD7
:104D50004C6843EAC4034C7A234302F5C07404EB65
:104D600000142468234302F5C07404EB001423608C
:104D70008B7A03F00F038B7202F5C07303EB001301
:104D80005B6823F00F0402F5C07303EB00135C6053
:104D900002F5C07303EB00135B688C7A234302F5C2
:104DA000C07404EB001463608B7B1C064B7B44EAED
:104DB000034403E000640040006600400B7B44EACB
:104DC0000323CC7A234302F5C07404EB0014A360E0
:104DD0008B7C1C064B7C44EA03440B7C44EA032393
:104DE000CC7B234302F5C07404EB0014E36002F5AE
:104DF000C07303EB00131B6843F0010402F5C0739A
:104E000003EB00131C6010BD10B50246002321B156
:104E1000012907D002290FD109E09068F94C00EA76
:104E200004030BE09068F84C00EA040306E0906885
:104E3000F64C00EA040301E0002300BF00BFF44C7D
:104E4000181BA34216D007DC83B16FF080601844B2
:104E500070B1022818D111E0B0F5007F10D0ED4CF0
:104E6000204448B1B0F5003F0ED10BE002230DE025
:104E700000230BE0002309E0002307E0012305E005
:104E8000012303E0012301E0002300BF00BFD8B2EB
:104E900010BD21B1012907D002290FD109E0826894
:104EA00042F0800282600AE0826842F4004282603E
:104EB00005E0826842F40002826000E000BF00BFAB
:104EC000704710B500F5D87303EB01131B6803F0AE
:104ED00004031372137A53B900F5D87303EB01136B
:104EE0001B6840F2FF7404EA5353136009E000F5B5
:104EF000D87303EB01131B686FF0604404EAD3031B
:104F0000536000F5D87303EB01131B6803F0020331
:104F1000537200F5D87303EB01135B6803F00F03C2
:104F2000937200F5D87303EB01135B681B0AD3740B
:104F300000F5D87303EB01139B68D37200F5D873A7
:104F400003EB01139B681C0A147300F5D87303EB81
:104F500001139B681C0C547300F5D87303EB011309
:104F60009B681B0E937300F5D87303EB0113DB688A
:104F7000D37300F5D87303EB0113DB681C0A1474B8
:104F800000F5D87303EB0113DB681C0C547400F5B7
:104F9000D87303EB0113DB681B0E937421B9C3684C
:104FA00043F02003C36003E0036943F0200303617F
:104FB00010BD21B9C26842F02002C26003E002695C
:104FC00042F02002026170470246002019B9D368FE
:104FD00003F0030006E0012903D1136903F0030085
:104FE00000E00020704710B502460B4600204FF647
:104FF000FF71BBB9146824F0020444F0010414608A
:1050000000E0491E546804F00304012C01D000297B
:10501000F7D1546804F00304012C01D0002032E0E1
:10502000012030E0012B13D1146824F00304146034
:1050300000E0491E546804F003040CB10029F8D1C3
:10504000546804F003040CB100201CE001201AE0B5
:10505000022B17D1146824F0010444F002041460F8
:1050600000E0491E546804F00304022C01D000291A
:10507000F7D1546804F00304022C01D0002002E0B0
:10508000012000E0002010BD014600200A6822F047
:10509000010242F002020A604A6802F00302022A98
:1050A00000D10120704701464FF6FF7200200B68C7
:1050B00023F002030B6000E0521E4B6803F0020372
:1050C000022B01D1002AF7D14B6803F00203022B17
:1050D00000D001207047014600208A6902F070006C
:1050E0007047014600208A69100E70470146002073
:1050F0008A69C2F3074070471AB143690B434361A1
:1051000002E043698B434361704710B502460020BB
:1051100001F4700343B19369C1F3130423400BB14D
:1051200001202DE000202BE001F0807343B1536893
:10513000C1F3130423400BB1012021E000201FE044
:1051400001F0006343B19368C1F3130423400BB132
:10515000012015E0002013E001F0007343B1D36893
:10516000C1F3130423400BB1012009E0002007E044
:105170001369C1F3130423400BB1012000E00020A8
:1051800010BD0022244B994202D10023836111E01B
:10519000C1F3130201F000730BB1C2600AE001F029
:1051A00080630BB1026105E001F000630BB1826026
:1051B00000E0426070470246002002EA01030BB1A2
:1051C000012000E00020704770B504460D4600261F
:1051D00060692840002872D0B5F5807F69D01DDC59
:1051E000082D42D006DC012D2DD0022D31D0042D0A
:1051F0007FD134E0102D3ED0202D42D0402D78D1EB
:1052000045E0000003000004000300080000031054
:10521000000100080001FFF77000F030B5F5004F05
:1052200061D009DCB5F5007F4AD0B5F5806F4DD06F
:10523000B5F5006F5DD150E0B5F5803F2DD0B5F5E7
:10524000003F56D12FE0A0685549FFF7B4FF06464E
:1052500051E0E0680321FFF7AEFF06464BE0E0684F
:105260000821FFF7A8FF064645E0E0681021FFF798
:10527000A2FF06463FE020690321FFF79CFF064698
:1052800039E020690821FFF796FF064633E02069E0
:105290001021FFF790FF06462DE060680821FFF718
:1052A0008AFF064627E060681021FFF784FF064664
:1052B00021E0A0690121FFF77EFF06461BE01BE00D
:1052C000A0690221FFF777FF064614E0A0690421D8
:1052D000FFF771FF06460EE00BE0A0697021FFF7B3
:1052E0006AFF064607E060680421FFF764FF064690
:1052F00001E0002600BF00E00026304670BDB1F599
:10530000007F3AD00FDC202928D006DC01291CD0F0
:1053100004291DD0082940D11DE0402921D0B1F534
:10532000807F3AD126E0B1F5004F31D006DCB1F5EF
:10533000806F25D0B1F5006F2FD124E0B1F5803F0B
:1053400012D0B1F5003F28D111E0154A826025E066
:105350000822C26022E01022C2601FE0082202611F
:105360001CE01022026119E00822426016E01022BF
:10537000426013E00422426010E0042242600DE02B
:10538000042242600AE0002282610422426005E0B9
:10539000002282610422426000E000BF00BF70472B
:1053A00001010100016821F001010160002101609B
:1053B00041608160C160016121214161DB49884216
:1053C00004D13D21D94A103A91608CE0D749183177
:1053D000884205D14FF47461D44A103A916082E05A
:1053E000D2493031884205D14FF47411CF4A103A76
:1053F000916078E0CD494831884205D14FF0746121
:10540000CA4A103A91606EE0C8496031884204D1BE
:10541000C749C64A103AD16065E0C449783188422C
:1054200004D1C449C14A103AD1605CE0BF4990310F
:10543000884204D1C049BD4A103AD16053E0BB490B
:10544000A831884205D14FF03D51B84A103AD16099
:1054500049E0BA49884204D13D21B84A083A11606E
:1054600041E0B6491831884205D14FF47461B34A1E
:10547000083A116037E0B1493031884205D14FF424
:105480007411AE4A083A11602DE0AC4948318842A7
:1054900005D14FF07461A94A083A116023E0A74989
:1054A0006031884204D1A249A44A121F11601AE057
:1054B000A2497831884204D19E49A04A121F116046
:1054C00011E09E499031884204D19B499B4A121FAA
:1054D000116008E09949A831884204D14FF03D514C
:1054E000964A121F1160704710B500220268944B53
:1054F0001A40CC680B6823434C6923438C692343CF
:10550000CC6923430C6A23434C6A23438C6A2343AC
:105510004C6B23438C6B23431A430260426922F095
:105520000702D1E90B3423431A4342610B694360FC
:105530004B6883608B68C36010BD002101604160CF
:105540008160C160016141618161C161016241624B
:105550008162C162016341638163704721B1026866
:1055600042F00102026003E0026822F001020260E0
:10557000704721B1026842F40042026003E0026811
:1055800022F400420260704721B1026842F020021A
:10559000026003E0026822F020020260704741606E
:1055A00070470146486880B2704722B1036843F4EF
:1055B0000023036003E0036823F400230360016118
:1055C000704721B1026842F48022026003E0026861
:1055D00022F48022026070470AB1016100E0C160DC
:1055E0007047014600200A6802F400220AB1012037
:1055F00000E000207047014600200A6802F0010226
:105600000AB1012000E000207047014600204A69ED
:1056100002F03800704730B503460A4600200024E7
:10562000464DAB4202D24149103901E0434910399D
:1056300002F000550DB14C6800E00C68414D2C4063
:1056400004EA02050DB1012000E0002030BD024651
:105650003A4B9A4202D23548103801E037481038A8
:1056600001F000531BB1374B0B40C36002E0354BD8
:105670000B408360704710B501F080034BB122B13D
:10568000436943F08003436103E0436923F08003EF
:10569000436180290BD02AB1036801F01E04234323
:1056A000036004E0036801F01E04A343036010BD1F
:1056B00070B50246002000240025204EB24202D2DE
:1056C0001A4B103B01E01D4B103B1F4E0E4036B1F4
:1056D0001E2606EAD124166806EA040502E0566989
:1056E00006F0800501F000560EB15C6800E01C6811
:1056F000144E344004EA010616B10DB1012000E059
:10570000002070BD02460D4B9A4202D20748103865
:1057100001E00A48103801F000531BB1094B0B405F
:10572000C36002E0074B0B4083607047106002408B
:105730003D000020400F002000003D20106402408A
:105740003F801CF07D0F7D0F3C0F3C0F10B50446D1
:10575000FE48844208D101210846FEF711FE0021CF
:105760000120FEF70DFE9DE0B4F1804F08D101212C
:105770000846FEF7F4FD00210120FEF7F0FD91E060
:10578000F348844208D101210220FEF7E8FD002100
:105790000220FEF7E4FD85E0EE48844208D10121B5
:1057A0000420FEF7DCFD00210420FEF7D8FD79E09F
:1057B000E948844208D101210820FEF7D0FD0021EC
:1057C0000820FEF7CCFD6DE0E448844208D10121B9
:1057D0001020FEF7C4FD00211020FEF7C0FD61E09F
:1057E000DF48844208D101212020FEF7B8FD0021C6
:1057F0002020FEF7B4FD55E0DA48844208D10121AB
:105800000220FEF7BDFD00210220FEF7B9FD49E0B0
:10581000D548844209D101210804FEF7B1FD0021D9
:105820004FF48030FEF7ACFD3CE0D048844209D113
:1058300001214804FEF7A4FD00214FF40030FEF7DB
:105840009FFD2FE0CA48844209D101218804FEF758
:1058500097FD00214FF48020FEF792FD22E0C5481D
:10586000844208D101214020FEF779FD002140202B
:10587000FEF775FD16E0C048844208D10121802062
:10588000FEF76DFD00218020FEF769FD0AE0BB48B0
:10589000844207D101218015FEF761FD0021A0158A
:1058A000FEF75DFD10BD00220288A84B98420ED085
:1058B000AC4B98420BD0B0F1804F08D0A44B98422B
:1058C00005D0A44B984202D0A34B984204D14FF686
:1058D0008F731A404B881A43A04B984207D0A04BB5
:1058E000984204D04FF6FF431A400B891A430280B6
:1058F0004B68C3620B880385944B984202D0994B46
:10590000984201D18B7A03860123838270474FF03E
:10591000FF31416000210180018141808172704727
:105920000185828270470A46002101884FF68F73F5
:10593000194011430180704741627047C16270474E
:105940000146486A70470146088D704721B10288B8
:1059500042F00202028004E002884FF6FD731A4012
:105960000280704721B1028842F00402028004E004
:1059700002884FF6FB731A400280704721B10288FB
:1059800042F08002028004E002884FF67F731A40E2
:105990000280704702884FF6F7731A40028002882F
:1059A0000A430280704702884FF6FF431A40028084
:1059B00002880A430280704721B1028842F0010246
:1059C000028004E002884FF6FE731A40028070479E
:1059D00070B5002400220023058C4FF6FE7635407A
:1059E0000584028C8388048B4FF68F752C40B51E7E
:1059F0002C400D882C43751E2A408D892A434D88E2
:105A00002A43524DA84202D0564DA84213D14FF618
:105A1000F7752A40CD892A434FF6FB752A408D88B9
:105A20002A434FF6FF652B404FF6FF552B400D8A5A
:105A30002B434D8A2B43838004838D684563028406
:105A400070BD70B5002400220023058C4FF6EF7660
:105A500035400584028C8388048B48F6FF752C4002
:105A60004FF6FF452C400D884FF6FF7606EA0525D8
:105A70002C434FF6DF752A408D8906EA05152A4327
:105A80004D8806EA05152A43304DA84202D0354D0F
:105A9000A8421DD14FF67F752A40CD894FF6FF767B
:105AA00006EA05152A434FF6BF752A408D8806EA97
:105AB00005152A434FF6FF352B404FF2FF752B405B
:105AC0000D8A06EA85052B434D8A06EA85052B4398
:105AD000838004838D688563028470BD70B5002463
